:100000000C9473000C949B000C949B000C9468045B
:100010000C9468040C9468040C949B000C949B0052
:100020000C949B000C949B000C949B000C949B00E4
:100030000C949B000C949B000C949B000C949B00D4
:100040000C941E040C949B000C94EC030C94C603BB
:100050000C949B000C949B000C949B000C949B00B4
:100060000C949B000C949B00005EBCE2613FDD831E
:10007000C29C7E20A3FD1F41009D23BE46DB65F888
:100080008C11AF32CA57E974000000002400270029
:100090002A0000000008000201000003040700001D
:1000A00000000000000000000000230026002900DE
:1000B00000000000250028002B00040404040404B0
:1000C0000404020202020202030303030303010207
:1000D00004081020408001020408102001020408D6
:1000E0001020E004E60811241FBECFEFD8E0DEBFE9
:1000F000CDBF11E0A0E0B1E0EAE7F2E102C0059077
:100100000D92AC35B107D9F722E0ACE5B1E001C002
:100110001D92AD37B207E1F710E0C2E7D0E004C0AE
:100120002197FE010E942A09C137D107C9F70E9411
:10013000B8050C9430090C94000080915002E091B5
:100140005102F0915202F8949181282F2095922328
:10015000918378943DE743E050E0315029F1DA0192
:100160001197F1F790819823C1F3F894928192232B
:1001700092839181982B91837894ABE7B7E01197A4
:10018000F1F7F894918192239183A3E1B1E0119763
:10019000F1F79081982381E009F080E07894E3E61C
:1001A000F6E03197F1F7089580E0089590915002BC
:1001B000E0915102F0915202292F209580FF14C046
:1001C000F8948281822382838181892B8183A3E2B7
:1001D000B0E01197F1F78281982B9283789487EDA4
:1001E00090E00197F1F70895F89482818223828349
:1001F0008181892B8183AFEFB0E01197F1F7828184
:10020000982B928378948FE090E0EBCF809150020E
:10021000E0915102F0915202F8949181982B9183D0
:100220002281382F309523232283A7E0B0E0119755
:10023000F1F7918193239183A3E2B0E01197F1F755
:1002400090817894EFECF0E03197F1F7982381E01A
:1002500009F480E00895AF92BF92CF92DF92EF92BF
:10026000FF920F931F93CF93DF936C017B018B0160
:10027000040F151FEB015E01AE18BF08C017D107B0
:1002800059F06991D601ED91FC910190F081E02D3A
:10029000C6010995892B79F7C501DF91CF911F918F
:1002A0000F91FF90EF90DF90CF90BF90AF900895A7
:1002B000FC01538D448D252F30E0842F90E0821B6C
:1002C000930B541710F0CF96089501970895FC01F1
:1002D000918D828D981761F0A28DAE0FBF2FB11D49
:1002E0005D968C91928D9F5F9F73928F90E00895A1
:1002F0008FEF9FEF0895FC01918D828D981731F05B
:10030000828DE80FF11D858D90E008958FEF9FEFAE
:100310000895FC01918D228D892F90E0805C9F4F84
:10032000821B91098F739927089583EB91E00E94B6
:10033000890121E0892B09F420E0822F089580E0D3
:1003400090E0892B29F00E94950181110C94000006
:100350000895FC01A48DA80FB92FB11DA35ABF4F5A
:100360002C91848D90E001968F739927848FA689B4
:10037000B7892C93A089B1898C91837080648C9308
:10038000938D848D981306C00288F389E02D8081B7
:100390008F7D80830895EF92FF920F931F93CF93E9
:1003A000DF93EC0181E0888F9B8D8C8D98131AC0B0
:1003B000E889F989808185FF15C09FB7F894EE8997
:1003C000FF896083E889F9898081837080648083F4
:1003D0009FBF81E090E0DF91CF911F910F91FF903F
:1003E000EF900895F62E0B8D10E00F5F1F4F0F73E7
:1003F0001127E02E8C8D8E110CC00FB607FCFACFA2
:10040000E889F989808185FFF5CFCE010E94A90195
:10041000F1CFEB8DEC0FFD2FF11DE35AFF4FF08272
:100420009FB7F8940B8FEA89FB8980818062CFCFD8
:10043000CF93DF93EC01888D8823B9F0AA89BB891B
:10044000E889F9898C9185FD03C0808186FD0DC006
:100450000FB607FCF7CF8C9185FFF2CF808185FF27
:10046000EDCFCE010E94A901E9CFDF91CF91089590
:1004700090E0FC01EE56FF4F2491FC01E253FF4F48
:100480003491FC01E654FF4FE491EE23C9F022239E
:1004900039F0233001F1A8F4213019F1223029F18B
:1004A000F0E0EE0FFF1FE055FF4FA591B4918FB71D
:1004B000F894EC91611126C030953E233C938FBF98
:1004C00008952730A9F02830C9F0243049F78091E9
:1004D00080008F7D03C0809180008F7780938000A3
:1004E000DFCF84B58F7784BDDBCF84B58F7DFBCF25
:1004F0008091B0008F778093B000D2CF8091B00010
:100500008F7DF9CF3E2BDACFCF93DF9390E0FC01C4
:10051000E253FF4F249186549F4FFC01849188231E
:10052000D1F090E0880F991FFC01E857FF4FA5918B
:10053000B491FC01E055FF4FC591D49161110EC0FB
:100540009FB7F8948C91E22FE0958E238C932881AD
:10055000E223E8839FBFDF91CF9108958FB7F8948E
:10056000EC91E22BEC938FBFF6CF3FB7F8948091DC
:10057000A1019091A201A091A301B091A40126B57F
:10058000A89B05C02F3F19F00196A11DB11D3FBFCB
:10059000BA2FA92F982F8827BC01CD01620F711D9A
:1005A000811D911D42E0660F771F881F991F4A9594
:1005B000D1F70895CF92DF92EF92FF920E94B50299
:1005C0006B017C010E94B5026C197D098E099F099F
:1005D000683E734081059105A8F3FF90EF90DF908E
:1005E000CF9008952FB7F89460919D0170919E016E
:1005F00080919F019091A0012FBF08952091A701A4
:100600003091A8012817390771F49091A5018091C4
:10061000A601981741F0E091A501F0E0E45AFE4FE1
:10062000808190E008958FEF9FEF08950895EF92F5
:10063000FF920F931F93CF93DF93DC015C96ED90B5
:10064000FC905D97E114F10479F481E090E0139659
:100650009C938E93129790E080E0DF91CF911F9151
:100660000F91FF90EF9008955196ED91FC91529764
:1006700050968C915097982F90950FB75E962C912D
:100680005E97122F127021FD6095F894208111233E
:1006900019F1282B2083E7012197F1F728E0462F55
:1006A00050E0308160FF1AC0382B3083E70121977A
:1006B000F1F7BA0175956795215089F7112381F0FB
:1006C0008081892380830FBF5C968D919C910197D7
:1006D000F1F781E090E0C1CF2923DCCF3923E5CFCA
:1006E0009081892BEFCF2091A7013091A801281785
:1006F000390771F48091A6012091A50190E0805CFA
:100700009F4F821B910960E470E00E9402090895E6
:1007100090E080E008952091A7013091A80128176A
:100720003907B9F49091A5018091A601981789F035
:10073000E091A501F0E0E45AFE4F80812091A501EF
:1007400030E02F5F3F4F2F7333272093A50190E0B8
:1007500008958FEF9FEF089590E080E00895DC0109
:1007600080E0615090F09D919827E92FEF70F0E0C4
:10077000E859FF4F2491E92FE295EF70F0E0E85837
:10078000FF4FE491822F8E27ECCF08951F920F9296
:100790000FB60F9211242F933F934F935F936F9354
:1007A0007F938F939F93AF93BF93EF93FF9383EBCD
:1007B00091E00E94A901FF91EF91BF91AF919F91AC
:1007C0008F917F916F915F914F913F912F910F90FA
:1007D0000FBE0F901F9018951F920F920FB60F9299
:1007E00011242F938F939F93EF93FF93E091C30175
:1007F000F091C4018081E091C901F091CA0182FDAC
:100800001BC090818091CC018F5F8F732091CD01AF
:10081000821741F0E091CC01F0E0ED54FE4F958F4E
:100820008093CC01FF91EF919F918F912F910F9029
:100830000FBE0F901F9018958081F4CF1F920F92DA
:100840000FB60F9211242F933F938F939F93AF93E3
:10085000BF9380919D0190919E01A0919F01B091C5
:10086000A00130919C0123E0230F2D3758F501960C
:10087000A11DB11D20939C0180939D0190939E0129
:10088000A0939F01B093A0018091A1019091A2013A
:10089000A091A301B091A4010196A11DB11D809367
:1008A000A1019093A201A093A301B093A401BF91D1
:1008B000AF919F918F913F912F910F900FBE0F900D
:1008C0001F90189526E8230F0296A11DB11DD2CFC7
:1008D0001F920F920FB60F9211242F933F934F93B5
:1008E0005F936F937F938F939F93AF93BF93EF9398
:1008F000FF93E091A701F091A801309749F0A685F8
:10090000B7858585968D91FF14C09C918923A1F4AC
:10091000FF91EF91BF91AF919F918F917F916F91D7
:100920005F914F913F912F910F900FBE0F901F90AD
:1009300018959C91892361F7A389B4899C91858935
:10094000809589238C93868997890197F1F7608D2B
:10095000718DA685B785558538E020E0CB010197DC
:10096000F1F7822F90E095958795282F4C9145239C
:1009700009F02068315091F7868D81FD2095809196
:10098000A60190E001968F7399273091A501381741
:1009900099F0A091A601B0E0A45ABE4F2C93809389
:1009A000A601828D938D0197F1F7A389B4898C916B
:1009B0009589892B8C93ACCF868D8160868FF1CF02
:1009C0001092B6011092B50188EE93E0A0E0B0E07D
:1009D0008093B7019093B801A093B901B093BA0185
:1009E0002FE131E03093B4012093B30125EC30E0E6
:1009F0003093C0012093BF0124EC30E03093C2015A
:100A00002093C10120EC30E03093C4012093C30156
:100A100021EC30E03093C6012093C50122EC30E098
:100A20003093C8012093C70126EC30E03093CA010F
:100A30002093C9011092CC011092CD011092CE01E9
:100A40001092CF01109261021092600280936202B4
:100A500090936302A0936402B093650281E391E0F6
:100A600090935F0280935E0210927502109274025E
:100A70001092770210927602109279021092780208
:100A800010927B0210927A0260917C026E7F6D7FE1
:100A900060937C026695617081E0682780E00E9427
:100AA000380261E080E00E948402EEECF0E0E49124
:100AB000E0936E02EAEBF0E0E491F0E0EE0FFF1F4E
:100AC000E055FF4F859194919093700280936F024F
:100AD00060E081E00E94840280917C0281FD04C07C
:100AE00061E081E00E94380281E080936A02EFECCD
:100AF000F0E0E491E0936B02EBEBF0E0E491F0E0E6
:100B0000EE0FFF1FEA55FF4F8591949190936D0270
:100B100080936C0260E083E00E948402E1EDF0E0EB
:100B2000E491E0935002EDEBF0E0E491F0E0EE0FA1
:100B3000FF1FEA55FF4F8591949190935202809345
:100B4000510210925B0210925D0210925C021092B0
:100B50005A021092590210925802109257021092A3
:100B600056021092550210925402109253020895A8
:100B7000CF93DF93CDB7DEB728970FB6F894DEBFDB
:100B80000FBECDBF789484B5826084BD84B581608A
:100B900084BD85B5826085BD85B5816085BD809148
:100BA0006E00816080936E001092810080918100C0
:100BB00082608093810080918100816080938100B8
:100BC000809180008160809380008091B10084607A
:100BD0008093B1008091B00081608093B0008091DB
:100BE0007A00846080937A0080917A00826080939A
:100BF0007A0080917A00816080937A0080917A00F7
:100C0000806880937A001092C10061E082E00E94C7
:100C1000840261E082E00E94380261E084E00E9488
:100C2000840261E084E00E943802109279021092FE
:100C3000780210927702109276021092750210924A
:100C400074028DEC90E090937B0280937A029091F5
:100C50006A02963108F047C025E530E0309375020E
:100C6000209374022BEC30E03093770220937602CD
:100C700020E930E0309379022093780220916800D7
:100C800084E0983048F031E09E3008F430E081E0B4
:100C900001C0880F3A95EAF7822B809368002DE611
:100CA00030E0983050F02BE630E09E3030F02CE60B
:100CB00030E0963110F030E020E030937202209363
:100CC0007102292F30E0983008F05DC181E001C049
:100CD000880F9A95EAF78093730280917A02909137
:100CE0007B020197F1F78091780290917902892B2C
:100CF00049F1E091A701F091A80122E0EE35F20759
:100D000009F1309739F0A389B4899C918589809540
:100D100089238C9380917C028E7F80937C02109239
:100D2000A6011092A5018EE592E09093A801809310
:100D3000A701E0917102F09172028081909173029B
:100D4000892B80830E94F2026093A9017093AA010B
:100D50008093AB019093AC010E94F2026093AD01CD
:100D60007093AE018093AF019093B0010E94F202A4
:100D70000E94F2025E0189E0A80EB11C0FEF10E0A4
:100D80007724739420E0822E20E0922E49E050E0F8
:100D90006FE371E08EE592E00E942B0110925B02FE
:100DA00010925D0210925C0210925A021092590247
:100DB0001092580210925702109256021092550249
:100DC00010925402109253020E94F202C090AD01A0
:100DD000D090AE01E090AF01F090B0016C197D09A8
:100DE0008E099F0961367A4E8105910520F10E9496
:100DF000F2026093AD017093AE018093AF019093C6
:100E0000B0011092B2011093010100930001109300
:100E10000301009302011093050100930401109354
:100E2000070100930601109309010093080161E096
:100E300084E00E9438020E94F202C090A901D09082
:100E4000AA01E090AB01F090AC016C197D098E090C
:100E50009F09653671058105910568F10E94F202CE
:100E60006093A9017093AA018093AB019093AC01A8
:100E700080915D02811109C00E949D0098E0E92ED9
:100E8000F12CDD24D39481118BC010925B0210925F
:100E90005D0210925C0210925A0210925902109256
:100EA0005802109257021092560210925502109258
:100EB0005402109253028091B201882309F434C184
:100EC00083EB91E00E9418021092B101109314017B
:100ED000009313011093160100931501109318014C
:100EE0000093170110931A01009319018EE592E007
:100EF0000E947303892B09F45DC18EE592E00E9484
:100F00007303892B09F410C18EE592E00E948B03D4
:100F1000F82E0E94DA0223E3F212EFCFF9828EE577
:100F200092E00E948B038A838EE592E00E948B03FD
:100F30008B838EE592E00E948B038C8363E0CE016D
:100F400001960E94AF039C818913EEC07092B1019B
:100F50000E94DA02898190E090931401809313013A
:100F60008A8190E090931601809315018B8190E027
:100F700090931801809317018C8190E090931A014F
:100F800080931901BACF9E3040F42850310981E096
:100F900001C0880F2A95EAF79ECE2E503109F7CF6F
:100FA00081E09D2D907F09F480E00E94D600DD0C49
:100FB000F1E0EF1AF108A1F7F894E0915102F091F5
:100FC0005202918180915002809598239183E09103
:100FD0005102F09152029281892382837894EE2407
:100FE000E394C12C612CFF24F3940E940601D82EB7
:100FF0000E94060121E0D21257C0813009F074C06E
:10100000E0E4EF1508F041CF60925B02611002C08E
:1010100070925D0280915302882309F436CFA3E5D4
:10102000B2E0FE013196CF012D912193EA15FB0527
:10103000D9F7F980F1E0FF123ECF67E00E94AF03DD
:101040009885891368C08A8190E09093010180930C
:1010500000018B8190E090930301809302018C81C9
:1010600090E090930501809304018D8190E090932E
:101070000701809306018E8190E09093090180938F
:10108000080160E084E00E9438020E94F20260934E
:10109000AD017093AE018093AF019093B001F092D7
:1010A000B2010E949D0007CFEC2DF0E0D81212C0D3
:1010B00080915B02F816B0F4DF01A05BBD4F139680
:1010C0008C918E2189F4D12C88E08F1510F0F0924C
:1010D0005C026F2CE05BFD4F83819E2D90958923F0
:1010E00083830BC08F11EFCFEC2DF0E0E05BFD4F61
:1010F00083818E298383DD24D3948D2D0E94D60095
:10110000F394EE0C19F4C394EE24E39497E09C1549
:1011100008F06BCF75CF41E150E069E471E083EBFB
:1011200091E00E942B01C7CE8091B101882309F480
:1011300041C01092B1018091150180930B01809103
:10114000170180930C018091000180930D01809123
:10115000020180930E018091040180930F01809120
:10116000060180931001809108018093110160E0D5
:1011700082E00E94380268E08AE091E00E94AF03BA
:101180008093120160E082E00E9438028AE0E82E3B
:1011900081E0F82EF70161917F018EE592E00E94D7
:1011A0001703F3E1EF16F1E0FF06A1F761E082E03B
:1011B0000E9438028114910409F4E8CD0E9495013F
:1011C000882309F4DFCD0E940000DCCD81E391E0AB
:1011D00090935F0280935E028091A7019091A80195
:1011E0008E55924071F4E0917102F09172029081FB
:1011F000809173028095892380831092A8011092B8
:10120000A701089597FB072E16F4009407D077FDE9
:1012100009D00E94160907FC05D03EF490958195EF
:101220009F4F0895709561957F4F0895AA1BBB1B32
:1012300051E107C0AA1FBB1FA617B70710F0A61BD6
:10124000B70B881F991F5A95A9F780959095BC01F7
:10125000CD010895EE0FFF1F0590F491E02D099444
:1012600010E0C2E7D0E004C0FE010E942A092196E6
:0A127000C337D107C9F7F894FFCF88
:10127A00FF00FF00FF00FF00FF00230906FFFFFF3A
:10128A00FFFF00FF00FF00FF00FF0000000000CB8F
:10129A00012B0158011802890167017B0100000036
:1012AA000017032B01AC03160373038B03FE0252D0
:1012BA00454144204341524400435243206973202C
:0C12CA006E6F742076616C696421000076
:107800000C94343C0C94513C0C94513C0C94513CE1
:107810000C94513C0C94513C0C94513C0C94513CB4
:107820000C94513C0C94513C0C94513C0C94513CA4
:107830000C94513C0C94513C0C94513C0C94513C94
:107840000C94513C0C94513C0C94513C0C94513C84
:107850000C94513C0C94513C0C94513C0C94513C74
:107860000C94513C0C94513C11241FBECFEFD8E036
:10787000DEBFCDBF11E0A0E0B1E0ECE9FFE702C060
:1078800005900D92A230B107D9F712E0A2E0B1E065
:1078900001C01D92AD30B107E1F70E942D3D0C945F
:1078A000CC3F0C94003C982F959595959595959582
:1078B000905D8F708A307CF0282F295A8091C0000B
:1078C00085FFFCCF9093C6008091C00085FFFCCF60
:1078D0002093C6000895282F205DF0CF982F809127
:1078E000C00085FFFCCF9093C6000895EF92FF92F1
:1078F0000F931F93EE24FF2487018091C00087FD22
:1079000017C00894E11CF11C011D111D81E4E8164B
:1079100082E4F8068FE0080780E0180770F3E09132
:107920000401F091050109958091C00087FFE9CF1E
:107930008091C6001F910F91FF90EF9008950E94D3
:10794000763C982F8091C00085FFFCCF9093C600B5
:1079500091362CF490330CF09053892F089597555D
:10796000892F08951F930E949F3C182F0E949F3CCF
:107970001295107F810F1F9108951F93182F882350
:1079800021F00E94763C1150E1F71F9108951F935A
:10799000182F0E94763C803249F0809103018F5F5E
:1079A000809303018530C1F01F9108958091C0003C
:1079B00085FFFCCF84E18093C6008091C00085FFE5
:1079C000FCCF1093C6008091C00085FFFCCF80E102
:1079D0008093C6001F910895E0910401F091050184
:1079E00009951F9108950E94763C803241F0809164
:1079F00003018F5F80930301853081F008958091AA
:107A0000C00085FFFCCF84E18093C6008091C00058
:107A100085FFFCCF80E18093C6000895E0910401CA
:107A2000F09105010995089540E951E08823A1F0FE
:107A30002D9A28EE33E0FA013197F1F721503040CA
:107A4000D1F72D9828EE33E0FA013197F1F7215064
:107A50003040D1F7815061F708953F924F925F9285
:107A60006F927F928F929F92AF92BF92CF92DF924E
:107A7000EF92FF920F931F93CF93DF93000080E16B
:107A80008093C4001092C50088E18093C10086E015
:107A90008093C2005098589A259A81E00E94143D24
:107AA00024E1F22E9EE1E92E85E9D82E0FE0C02ECA
:107AB00010E1B12EAA24A394B1E49B2EA6E58A2E50
:107AC000F2E57F2EE0E26E2E79E4572E63E5462E36
:107AD00050E5352E0E94763C8033B1F18133B9F107
:107AE000803409F46FC0813409F476C0823409F41B
:107AF00085C0853409F488C0803531F1823521F1A3
:107B0000813511F1853509F485C0863509F48DC0BC
:107B1000843609F496C0843709F403C1853709F423
:107B200072C1863709F466C0809103018F5F80932C
:107B30000301853079F6E0910401F0910501099582
:107B40000E94763C803351F60E94F33CC3CF0E94E2
:107B5000763C803249F78091C00085FFFCCFF092DF
:107B6000C6008091C00085FFFCCF9092C600809136
:107B7000C00085FFFCCF8092C6008091C00085FFC9
:107B8000FCCF7092C6008091C00085FFFCCF609250
:107B9000C6008091C00085FFFCCF5092C600809146
:107BA000C00085FFFCCF4092C6008091C00085FFD9
:107BB000FCCF3092C6008091C00085FFFCCFB09210
:107BC000C60088CF0E94763C863808F4BDCF0E945C
:107BD000763C0E94F33C7ECF0E94763C803809F4CC
:107BE0009CC0813809F40BC1823809F43CC1883942
:107BF00009F48FC080E00E94C73C6CCF84E10E94F2
:107C0000BD3C0E94F33C66CF85E00E94BD3C0E94D3
:107C1000F33C60CF0E94763C809306010E94763C44
:107C2000809307010E94F33C55CF0E94763C80333D
:107C300009F41DC183E00E94BD3C80E00E94C73C66
:107C400049CF0E94763C809309020E94763C809343
:107C5000080280910C028E7F80930C020E94763C79
:107C6000853409F415C18091080290910902892B8D
:107C700089F000E010E00E94763CF801E85FFE4FDA
:107C800080830F5F1F4F80910802909109020817AF
:107C9000190788F30E94763C803209F045CF809125
:107CA0000C0280FF01C16091060170910701660F0F
:107CB000771F7093070160930601A0910802B091AD
:107CC00009021097C9F0E8E0F1E09B01AD014E0F09
:107CD0005F1FF999FECF32BD21BD819180BDFA9A17
:107CE000F99A2F5F3F4FE417F50799F76A0F7B1F4B
:107CF00070930701609306018091C00085FFFCCF5F
:107D0000F092C6008091C00085FFFCCFB092C60003
:107D1000E1CE83E00E94C73CDDCE82E00E94C73CFA
:107D2000D9CE0E94763C809309020E94763C8093D3
:107D300008028091060190910701880F991F909386
:107D40000701809306010E94763C853409F4A6C0A1
:107D500080910C028E7F80930C020E94763C8032D0
:107D600009F0B8CE8091C00085FFFCCFF092C6002C
:107D7000609108027091090261157105B9F140E046
:107D800050E080910C02A82FA170B82FB27011C0E2
:107D9000BB2309F45CC0E0910601F0910701319624
:107DA000F0930701E09306014F5F5F4F46175707B7
:107DB000E8F4AA2369F3F999FECF209106013091E6
:107DC000070132BD21BDF89A90B58091C00085FFB2
:107DD000FCCF9093C6002F5F3F4F30930701209355
:107DE00006014F5F5F4F4617570718F38091C00099
:107DF00085FDE5CE8091C00085FFF8CFE0CE81E023
:107E00000E94C73C67CE0E94763C803209F08CCE3F
:107E10008091C00085FFFCCFF092C6008091C00029
:107E200085FFFCCFE092C6008091C00085FFFCCFAB
:107E3000D092C6008091C00085FFFCCFC092C600E2
:107E40008091C00085FFFCCFB092C60043CEE09188
:107E50000601F091070194918091C00085FFFCCF4D
:107E60009093C6009CCF80E10E94C73C33CE0E9415
:107E7000763C0E94763C182F0E94763C112309F430
:107E800083C0113009F484C08FE00E94C73C22CE29
:107E900080910C02816080930C02E5CE80910C02EF
:107EA000816080930C0259CF809107018823880F4D
:107EB000880B8A2180930B02809106019091070123
:107EC000880F991F90930701809306018091080203
:107ED00080FF09C080910802909109020196909359
:107EE000090280930802F894F999FECF1127E091D6
:107EF0000601F0910701C8E0D1E08091080290915D
:107F00000902103091F40091570001700130D9F34B
:107F100003E000935700E89500915700017001308D
:107F2000D9F301E100935700E89509901990009169
:107F3000570001700130D9F301E000935700E89534
:107F40001395103498F011270091570001700130FB
:107F5000D9F305E000935700E895009157000170B0
:107F60000130D9F301E100935700E895329602976A
:107F700009F0C7CF103011F00296E5CF112480919F
:107F8000C00085FFB9CEBCCE8EE10E94C73CA2CD19
:0C7F900085E90E94C73C9ECDF894FFCF0D
:027F9C00800063
:040000030000780081
:00000001FF
