:100000000C9472000C949A000C949A000C949A0030
:100010000C949A000C949A000C949A000C949A00F8
:100020000C949A000C949A000C949A000C949A00E8
:100030000C949A000C949A000C949A000C949A00D8
:100040000C949A030C949A000C9468030C94420349
:100050000C949A000C949A000C949A000C949A00B8
:100060000C949A000C949A00005EBCE2613FDD8320
:10007000C29C7E20A3FD1F41009D23BE46DB65F888
:100080008C11AF32CA57E974000000002400270029
:100090002A0000000000250028002B0000000008B6
:1000A000000201000003040700000000000000003F
:1000B00000000000230026002900040404040404B6
:1000C0000404020202020202030303030303010207
:1000D00004081020408001020408102001020408D6
:1000E0001020E40311241FBECFEFD8E0DEBFCDBF48
:1000F00011E0A0E0B1E0ECE4FEE002C005900D925A
:10010000AE32B107D9F721E0AEE2B1E001C01D92F5
:10011000AE3EB207E1F710E0C2E7D0E004C021979D
:10012000FE010E941E07C137D107C9F70E9449048A
:100130000C9424070C9400008091E001E091E1010F
:10014000F091E201F8949181282F209592239183D8
:1001500078943DE743E050E0315029F1DA011197FE
:10016000F1F790819823C1F3F894928192239283BE
:100170009181982B91837894ABE7B7E01197F1F7D1
:10018000F894918192239183A3E1B1E01197F1F763
:100190009081982381E009F080E07894E3E6F6E02E
:1001A0003197F1F7089580E008959091E001E09192
:1001B000E101F091E201292F209580FF14C0F8940D
:1001C0008281822382838181892B8183A3E2B0E0B3
:1001D0001197F1F78281982B9283789487ED90E0C4
:1001E0000197F1F70895F8948281822382838181B7
:1001F000892B8183AFEFB0E01197F1F78281982BC3
:10020000928378948FE090E0EBCF8091E001E091D1
:10021000E101F091E201F8949181982B9183228180
:10022000382F309523232283A7E0B0E01197F1F710
:10023000918193239183A3E2B0E01197F1F790812C
:100240007894EFECF0E03197F1F7982381E009F42E
:1002500080E00895AF92BF92CF92DF92EF92FF922B
:100260000F931F93CF93DF936C017B018B01040FDE
:10027000151FEB015E01AE18BF08C017D10759F07A
:100280006991D601ED91FC910190F081E02DC601BC
:100290000995892B79F7C501DF91CF911F910F91B6
:1002A000FF90EF90DF90CF90BF90AF900895FC014A
:1002B000538D448D252F30E0842F90E0821B930BCB
:1002C000541710F0CF96089501970895FC01918D71
:1002D000828D981761F0A28DAE0FBF2FB11D5D9674
:1002E0008C91928D9F5F9F73928F90E008958FEF16
:1002F0009FEF0895FC01918D828D981731F0828DCA
:10030000E80FF11D858D90E008958FEF9FEF089520
:10031000FC01918D228D892F90E0805C9F4F821B84
:1003200091098F739927089583E491E00E948801D1
:1003300021E0892B09F420E0822F089580E090E0ED
:10034000892B29F00E94940181110C9400000895DA
:10035000FC01A48DA80FB92FB11DA35ABF4F2C913A
:10036000848D90E001968F739927848FA689B78931
:100370002C93A089B1898C91837080648C93938D28
:10038000848D981306C00288F389E02D80818F7DCB
:1003900080830895EF92FF920F931F93CF93DF9383
:1003A000EC0181E0888F9B8D8C8D98131AC0E889B1
:1003B000F989808185FF15C09FB7F894EE89FF8980
:1003C0006083E889F98980818370806480839FBF1E
:1003D00081E090E0DF91CF911F910F91FF90EF901E
:1003E0000895F62E0B8D10E00F5F1F4F0F7311272E
:1003F000E02E8C8D8E110CC00FB607FCFACFE88969
:10040000F989808185FFF5CFCE010E94A801F1CF47
:10041000EB8DEC0FFD2FF11DE35AFF4FF0829FB7DC
:10042000F8940B8FEA89FB8980818062CFCFCF93CC
:10043000DF93EC01888D8823B9F0AA89BB89E8890C
:10044000F9898C9185FD03C0808186FD0DC00FB6B2
:1004500007FCF7CF8C9185FFF2CF808185FFEDCF30
:10046000CE010E94A801E9CFDF91CF91089590E0DD
:10047000FC01E456FF4F2491FC01E253FF4F3491FD
:10048000FC01E654FF4FE491EE23C9F0222339F03A
:10049000233001F1A8F4213019F1223029F1F0E0E4
:1004A000EE0FFF1FEE56FF4FA591B4918FB7F89452
:1004B000EC91611126C030953E233C938FBF089587
:1004C0002730A9F02830C9F0243049F78091800006
:1004D0008F7D03C0809180008F7780938000DFCF75
:1004E00084B58F7784BDDBCF84B58F7DFBCF8091C2
:1004F000B0008F778093B000D2CF8091B0008F7D15
:10050000F9CF3E2BDACFCF93DF9390E0FC01E2539B
:10051000FF4F249186549F4FFC0184918823D1F092
:1005200090E0880F991FFC01E857FF4FA591B49107
:10053000FC01EE56FF4FC591D49161110EC09FB7DB
:10054000F8948C91E22FE0958E238C932881E223FE
:10055000E8839FBFDF91CF9108958FB7F894EC9116
:10056000E22BEC938FBFF6CF3FB7F8948091330125
:1005700090913401A0913501B091360126B5A89B28
:1005800005C02F3F19F00196A11DB11D3FBFBA2F25
:10059000A92F982F8827BC01CD01620F711D811DE5
:1005A000911D42E0660F771F881F991F4A95D1F76A
:1005B00008958F929F92AF92BF92CF92DF92EF9267
:1005C000FF924B015C010E94B4026B017C010E940E
:1005D000B4026C197D098E099F09683E734081053C
:1005E0009105A8F328EEC20E23E0D21EE11CF11CF7
:1005F0008A9489288A288B2829F0812C912C5401EF
:100600008394E5CFFF90EF90DF90CF90BF90AF90B5
:100610009F908F9008952FB7F89460912F0170915B
:10062000300180913101909132012FBF0895DC019A
:1006300080E0615090F09D919827E92FEF70F0E0F5
:10064000E859FF4F2491E92FE295EF70F0E0E85868
:10065000FF4FE491822F8E27ECCF089562E070E087
:1006600080E090E00E94D90283E491E00E941702AA
:1006700060E082E00E94370262E070E080E090E09B
:100680000C94D9021F920F920FB60F9211242F9340
:100690003F934F935F936F937F938F939F93AF930A
:1006A000BF93EF93FF9383E491E00E94A801FF9131
:1006B000EF91BF91AF919F918F917F916F915F91DA
:1006C0004F913F912F910F900FBE0F901F90189553
:1006D0001F920F920FB60F9211242F938F939F9317
:1006E000EF93FF93E0915301F09154018081E091E9
:1006F0005901F0915A0182FD1BC0908180915C01EB
:100700008F5F8F7320915D01821741F0E0915C0152
:10071000F0E0ED5BFE4F958F80935C01FF91EF91D0
:100720009F918F912F910F900FBE0F901F90189552
:100730008081F4CF1F920F920FB60F9211242F9346
:100740003F938F939F93AF93BF9380912F0190918D
:100750003001A0913101B091320130912E0123E09E
:10076000230F2D3758F50196A11DB11D20932E01A1
:1007700080932F0190933001A0933101B093320107
:100780008091330190913401A0913501B0913601EF
:100790000196A11DB11D8093330190933401A09364
:1007A0003501B0933601BF91AF919F918F913F91E9
:1007B0002F910F900FBE0F901F90189526E8230FD2
:1007C0000296A11DB11DD2CFE3E4F1E013821282A3
:1007D00088EE93E0A0E0B0E084839583A683B7839E
:1007E0008FE191E09183808385EC90E09587848709
:1007F00084EC90E09787868780EC90E0918B808BEB
:1008000081EC90E0938B828B82EC90E0958B848BD3
:1008100086EC90E0978B868B118E128E138E148E41
:1008200060E083E00E948302E1EDF0E0E491A0EE5D
:10083000B1E0EC93EDEBF0E0E491F0E0EE0FFF1FA0
:10084000E055FF4F8591949112969C938E9311974A
:100850001B961C921B971D961C921D971C961C9212
:100860001C971A961C921A9719961C92199718960B
:100870001C92189717961C92179716961C9216970B
:1008800015961C92159714961C92149713961C9209
:100890000895CF93DF93CDB7DEB728970FB6F894BE
:1008A000DEBF0FBECDBF789484B5826084BD84B5B1
:1008B000816084BD85B5826085BD85B5816085BD5B
:1008C00080916E00816080936E0010928100809113
:1008D000810082608093810080918100816080939B
:1008E0008100809180008160809380008091B100C0
:1008F00084608093B1008091B00081608093B000EB
:1009000080917A00846080937A0080917A0082607E
:1009100080937A0080917A00816080937A00809140
:100920007A00806880937A001092C10061E082E0D2
:100930000E9483020E942E0361E084E00E948302F1
:1009400061E084E00E943702E0915301F09154018C
:1009500082E08083E0914F01F09150011082E0919C
:100960005101F091520187E6808310925B01E09182
:100970005701F091580186E08083E0915501F09194
:100980005601808180618083E0915501F09156018C
:10099000808188608083E0915501F09156018081CB
:1009A00080688083E0915501F091560180818F7DB0
:1009B00080830E940B03609337017093380180930A
:1009C000390190933A010E940B0360933B017093AD
:1009D0003C0180933D0190933E010E940B030E94D5
:1009E0000B0360933F01709340018093410190930A
:1009F00042016E0129E0C20ED11C33E1A32E31E089
:100A0000B32E0FEF10E0712C612C5524539420E08D
:100A1000822E20E0922E1092EB011092ED011092A6
:100A2000EC011092EA011092E9011092E801109293
:100A3000E7011092E6011092E5011092E401109294
:100A4000E3010E940B0320913B0130913C01409156
:100A50003D0150913E01621B730B840B950B693E67
:100A600073408105910510F10E940B0360933B01D7
:100A700070933C0180933D0190933E0110930101DE
:100A800000930001109303010093020110930501EC
:100A900000930401109307010093060110930901CC
:100AA0000093080161E084E00E9437020E940B037A
:100AB00020913701309138014091390150913A012C
:100AC000621B730B840B950B693C710581059105C5
:100AD00068F10E940B036093370170933801809393
:100AE000390190933A018091ED01811109C00E9472
:100AF0009C0098E0E92EF12C442443948111C4C059
:100B00001092EB011092ED011092EC011092EA01AB
:100B10001092E9011092E8011092E7011092E601AB
:100B20001092E5011092E4011092E3011093140178
:100B300000931301109316010093150110931801EF
:100B40000093170110931A010093190183E491E0B7
:100B50000E948801892B09F450C183E491E00E942E
:100B60008801892B09F449C183E491E00E94660160
:100B7000F82E62E070E080E090E00E94D902F3E39A
:100B8000FF12EBCFF98283E491E00E9466018A8331
:100B900083E491E00E9466018B8383E491E00E94EC
:100BA00066018C8363E0CE0101960E9417039C814D
:100BB000891323C161E070E080E090E00E94D902D7
:100BC000898190E090931401809313013A81832FDF
:100BD00090E090931601809315012B81822F90E075
:100BE00090931801809317018C8190E090931A01E3
:100BF0008093190130930B0120930C018091000127
:100C000080930D018091020180930E018091040177
:100C100080930F018091060180931001809108015B
:100C20008093110162E070E080E090E00E94D902C0
:100C300083E491E00E94170261E082E00E943702A3
:100C400062E070E080E090E00E94D90268E08AE013
:100C500091E00E941703809312018AE0E82E81E060
:100C6000F82EF70161917F0183E491E00E94CA01AF
:100C700061E070E080E090E00E94D902AE14BF0411
:100C800081F70E942E0369CF81E0942D907F09F4B3
:100C900080E00E94D500440CF1E0EF1AF108A1F7C2
:100CA000F894E091E101F091E20191818091E001FD
:100CB000809598239183E091E101F091E201928186
:100CC000892382837894EE24E394312C212CFF2411
:100CD000F3940E940501482E0E94050121E0421272
:100CE00055C0813009F072C0E0E4EF1508F008CF7C
:100CF0002092EB01211002C05092ED018091E3019E
:100D0000882309F4FDCEA3EEB1E0FE013196CF01B8
:100D10002D912193CE16DF06D9F72981213009F0D4
:100D200005CF67E00E94170398858913FFCE8A815B
:100D300090E090930101809300018B8190E090936B
:100D40000301809302018C8190E0909305018093D0
:100D500004018D8190E090930701809306018E81BC
:100D600090E0909309018093080160E084E00E9484
:100D700037020E940B0360933B0170933C01809308
:100D80003D0190933E010E949C00D0CEE32DF0E007
:100D9000481212C08091EB01F816B0F4DF01A052A6
:100DA000BE4F13968C918E2189F4412C88E08F15CB
:100DB00010F0F092EC012F2CE052FE4F83819E2D1B
:100DC0009095892383830BC08F11EFCFE32DF0E043
:100DD000E052FE4F83818E29838344244394842DE3
:100DE0000E94D500F394EE0C19F43394EE24E394AE
:100DF00097E0931508F06DCF77CF0E940B032091F9
:100E00003F01309140014091410150914201621BEC
:100E1000730B840B950B61367A4E8105910510F0AA
:100E2000F30109958114910409F4F5CD0E94940110
:100E3000882309F4EACD0E940000E5CDEE0FFF1FE4
:0C0E40000590F491E02D0994F894FFCF88
:100E4C00FF00FF00FF00FF00FF00230906FFFFFF6C
:100E5C00FFFF00330009000600FF0000000000CA7D
:0E0E6C00012A0157011702880166017A010070
:00000001FF
